{
  "_format": "hh-sol-artifact-1",
  "contractName": "BatchExchange",
  "sourceName": "contracts/mocks/BatchExchange.sol",
  "abi": [
    {
      "inputs": [
        {
          "internalType": "address",
          "name": "_feeToken",
          "type": "address"
        }
      ],
      "stateMutability": "nonpayable",
      "type": "constructor"
    },
    {
      "anonymous": false,
      "inputs": [
        {
          "indexed": true,
          "internalType": "address",
          "name": "user",
          "type": "address"
        },
        {
          "indexed": true,
          "internalType": "address",
          "name": "token",
          "type": "address"
        },
        {
          "indexed": false,
          "internalType": "uint256",
          "name": "amount",
          "type": "uint256"
        },
        {
          "indexed": false,
          "internalType": "uint32",
          "name": "batchId",
          "type": "uint32"
        }
      ],
      "name": "Deposit",
      "type": "event"
    },
    {
      "anonymous": false,
      "inputs": [
        {
          "indexed": true,
          "internalType": "address",
          "name": "owner",
          "type": "address"
        },
        {
          "indexed": false,
          "internalType": "uint16",
          "name": "id",
          "type": "uint16"
        }
      ],
      "name": "OrderCancellation",
      "type": "event"
    },
    {
      "anonymous": false,
      "inputs": [
        {
          "indexed": true,
          "internalType": "address",
          "name": "owner",
          "type": "address"
        },
        {
          "indexed": false,
          "internalType": "uint16",
          "name": "id",
          "type": "uint16"
        }
      ],
      "name": "OrderDeletion",
      "type": "event"
    },
    {
      "anonymous": false,
      "inputs": [
        {
          "indexed": true,
          "internalType": "address",
          "name": "owner",
          "type": "address"
        },
        {
          "indexed": false,
          "internalType": "uint16",
          "name": "index",
          "type": "uint16"
        },
        {
          "indexed": true,
          "internalType": "uint16",
          "name": "buyToken",
          "type": "uint16"
        },
        {
          "indexed": true,
          "internalType": "uint16",
          "name": "sellToken",
          "type": "uint16"
        },
        {
          "indexed": false,
          "internalType": "uint32",
          "name": "validFrom",
          "type": "uint32"
        },
        {
          "indexed": false,
          "internalType": "uint32",
          "name": "validUntil",
          "type": "uint32"
        },
        {
          "indexed": false,
          "internalType": "uint128",
          "name": "priceNumerator",
          "type": "uint128"
        },
        {
          "indexed": false,
          "internalType": "uint128",
          "name": "priceDenominator",
          "type": "uint128"
        }
      ],
      "name": "OrderPlacement",
      "type": "event"
    },
    {
      "anonymous": false,
      "inputs": [
        {
          "indexed": false,
          "internalType": "address",
          "name": "token",
          "type": "address"
        },
        {
          "indexed": false,
          "internalType": "uint16",
          "name": "id",
          "type": "uint16"
        }
      ],
      "name": "TokenListing",
      "type": "event"
    },
    {
      "anonymous": false,
      "inputs": [
        {
          "indexed": true,
          "internalType": "address",
          "name": "user",
          "type": "address"
        },
        {
          "indexed": true,
          "internalType": "address",
          "name": "token",
          "type": "address"
        },
        {
          "indexed": false,
          "internalType": "uint256",
          "name": "amount",
          "type": "uint256"
        }
      ],
      "name": "Withdraw",
      "type": "event"
    },
    {
      "anonymous": false,
      "inputs": [
        {
          "indexed": true,
          "internalType": "address",
          "name": "user",
          "type": "address"
        },
        {
          "indexed": true,
          "internalType": "address",
          "name": "token",
          "type": "address"
        },
        {
          "indexed": false,
          "internalType": "uint256",
          "name": "amount",
          "type": "uint256"
        },
        {
          "indexed": false,
          "internalType": "uint32",
          "name": "batchId",
          "type": "uint32"
        }
      ],
      "name": "WithdrawRequest",
      "type": "event"
    },
    {
      "inputs": [],
      "name": "BATCH_TIME",
      "outputs": [
        {
          "internalType": "uint32",
          "name": "",
          "type": "uint32"
        }
      ],
      "stateMutability": "view",
      "type": "function"
    },
    {
      "inputs": [],
      "name": "MAX_TOKENS",
      "outputs": [
        {
          "internalType": "uint256",
          "name": "",
          "type": "uint256"
        }
      ],
      "stateMutability": "view",
      "type": "function"
    },
    {
      "inputs": [],
      "name": "MAX_TOUCHED_ORDERS",
      "outputs": [
        {
          "internalType": "uint256",
          "name": "",
          "type": "uint256"
        }
      ],
      "stateMutability": "view",
      "type": "function"
    },
    {
      "inputs": [
        {
          "internalType": "address",
          "name": "token",
          "type": "address"
        }
      ],
      "name": "addToken",
      "outputs": [],
      "stateMutability": "nonpayable",
      "type": "function"
    },
    {
      "inputs": [
        {
          "internalType": "uint16[]",
          "name": "orderIds",
          "type": "uint16[]"
        }
      ],
      "name": "cancelOrders",
      "outputs": [],
      "stateMutability": "nonpayable",
      "type": "function"
    },
    {
      "inputs": [
        {
          "internalType": "uint16",
          "name": "",
          "type": "uint16"
        }
      ],
      "name": "currentPrices",
      "outputs": [
        {
          "internalType": "uint128",
          "name": "",
          "type": "uint128"
        }
      ],
      "stateMutability": "view",
      "type": "function"
    },
    {
      "inputs": [
        {
          "internalType": "address",
          "name": "token",
          "type": "address"
        },
        {
          "internalType": "uint256",
          "name": "amount",
          "type": "uint256"
        }
      ],
      "name": "deposit",
      "outputs": [],
      "stateMutability": "nonpayable",
      "type": "function"
    },
    {
      "inputs": [],
      "name": "feeToken",
      "outputs": [
        {
          "internalType": "contract ERC20",
          "name": "",
          "type": "address"
        }
      ],
      "stateMutability": "view",
      "type": "function"
    },
    {
      "inputs": [
        {
          "internalType": "address",
          "name": "user",
          "type": "address"
        },
        {
          "internalType": "address",
          "name": "token",
          "type": "address"
        }
      ],
      "name": "getBalance",
      "outputs": [
        {
          "internalType": "uint256",
          "name": "",
          "type": "uint256"
        }
      ],
      "stateMutability": "view",
      "type": "function"
    },
    {
      "inputs": [],
      "name": "getCurrentBatchId",
      "outputs": [
        {
          "internalType": "uint32",
          "name": "",
          "type": "uint32"
        }
      ],
      "stateMutability": "view",
      "type": "function"
    },
    {
      "inputs": [
        {
          "internalType": "address",
          "name": "user",
          "type": "address"
        },
        {
          "internalType": "address",
          "name": "token",
          "type": "address"
        }
      ],
      "name": "getPendingDeposit",
      "outputs": [
        {
          "internalType": "uint256",
          "name": "",
          "type": "uint256"
        },
        {
          "internalType": "uint32",
          "name": "",
          "type": "uint32"
        }
      ],
      "stateMutability": "view",
      "type": "function"
    },
    {
      "inputs": [
        {
          "internalType": "address",
          "name": "user",
          "type": "address"
        },
        {
          "internalType": "address",
          "name": "token",
          "type": "address"
        }
      ],
      "name": "getPendingWithdraw",
      "outputs": [
        {
          "internalType": "uint256",
          "name": "",
          "type": "uint256"
        },
        {
          "internalType": "uint32",
          "name": "",
          "type": "uint32"
        }
      ],
      "stateMutability": "view",
      "type": "function"
    },
    {
      "inputs": [],
      "name": "getSecondsRemainingInBatch",
      "outputs": [
        {
          "internalType": "uint256",
          "name": "",
          "type": "uint256"
        }
      ],
      "stateMutability": "view",
      "type": "function"
    },
    {
      "inputs": [
        {
          "internalType": "address",
          "name": "addr",
          "type": "address"
        }
      ],
      "name": "hasToken",
      "outputs": [
        {
          "internalType": "bool",
          "name": "",
          "type": "bool"
        }
      ],
      "stateMutability": "view",
      "type": "function"
    },
    {
      "inputs": [
        {
          "internalType": "address",
          "name": "user",
          "type": "address"
        },
        {
          "internalType": "address",
          "name": "token",
          "type": "address"
        }
      ],
      "name": "hasValidWithdrawRequest",
      "outputs": [
        {
          "internalType": "bool",
          "name": "",
          "type": "bool"
        }
      ],
      "stateMutability": "view",
      "type": "function"
    },
    {
      "inputs": [
        {
          "internalType": "address",
          "name": "",
          "type": "address"
        },
        {
          "internalType": "address",
          "name": "",
          "type": "address"
        }
      ],
      "name": "lastCreditBatchId",
      "outputs": [
        {
          "internalType": "uint32",
          "name": "",
          "type": "uint32"
        }
      ],
      "stateMutability": "view",
      "type": "function"
    },
    {
      "inputs": [],
      "name": "numTokens",
      "outputs": [
        {
          "internalType": "uint16",
          "name": "",
          "type": "uint16"
        }
      ],
      "stateMutability": "view",
      "type": "function"
    },
    {
      "inputs": [
        {
          "internalType": "address",
          "name": "",
          "type": "address"
        },
        {
          "internalType": "uint256",
          "name": "",
          "type": "uint256"
        }
      ],
      "name": "orders",
      "outputs": [
        {
          "internalType": "uint16",
          "name": "buyToken",
          "type": "uint16"
        },
        {
          "internalType": "uint16",
          "name": "sellToken",
          "type": "uint16"
        },
        {
          "internalType": "uint32",
          "name": "validFrom",
          "type": "uint32"
        },
        {
          "internalType": "uint32",
          "name": "validUntil",
          "type": "uint32"
        },
        {
          "internalType": "uint128",
          "name": "priceNumerator",
          "type": "uint128"
        },
        {
          "internalType": "uint128",
          "name": "priceDenominator",
          "type": "uint128"
        },
        {
          "internalType": "uint128",
          "name": "usedAmount",
          "type": "uint128"
        }
      ],
      "stateMutability": "view",
      "type": "function"
    },
    {
      "inputs": [
        {
          "internalType": "uint16",
          "name": "buyToken",
          "type": "uint16"
        },
        {
          "internalType": "uint16",
          "name": "sellToken",
          "type": "uint16"
        },
        {
          "internalType": "uint32",
          "name": "validUntil",
          "type": "uint32"
        },
        {
          "internalType": "uint128",
          "name": "buyAmount",
          "type": "uint128"
        },
        {
          "internalType": "uint128",
          "name": "sellAmount",
          "type": "uint128"
        }
      ],
      "name": "placeOrder",
      "outputs": [
        {
          "internalType": "uint256",
          "name": "",
          "type": "uint256"
        }
      ],
      "stateMutability": "nonpayable",
      "type": "function"
    },
    {
      "inputs": [
        {
          "internalType": "address",
          "name": "token",
          "type": "address"
        },
        {
          "internalType": "uint256",
          "name": "amount",
          "type": "uint256"
        },
        {
          "internalType": "uint32",
          "name": "batchId",
          "type": "uint32"
        }
      ],
      "name": "requestFutureWithdraw",
      "outputs": [],
      "stateMutability": "nonpayable",
      "type": "function"
    },
    {
      "inputs": [
        {
          "internalType": "address",
          "name": "token",
          "type": "address"
        },
        {
          "internalType": "uint256",
          "name": "amount",
          "type": "uint256"
        }
      ],
      "name": "requestWithdraw",
      "outputs": [],
      "stateMutability": "nonpayable",
      "type": "function"
    },
    {
      "inputs": [
        {
          "internalType": "address",
          "name": "addr",
          "type": "address"
        }
      ],
      "name": "tokenAddressToIdMap",
      "outputs": [
        {
          "internalType": "uint16",
          "name": "",
          "type": "uint16"
        }
      ],
      "stateMutability": "view",
      "type": "function"
    },
    {
      "inputs": [
        {
          "internalType": "uint16",
          "name": "id",
          "type": "uint16"
        }
      ],
      "name": "tokenIdToAddressMap",
      "outputs": [
        {
          "internalType": "address",
          "name": "",
          "type": "address"
        }
      ],
      "stateMutability": "view",
      "type": "function"
    },
    {
      "inputs": [
        {
          "internalType": "address",
          "name": "user",
          "type": "address"
        },
        {
          "internalType": "address",
          "name": "token",
          "type": "address"
        }
      ],
      "name": "withdraw",
      "outputs": [],
      "stateMutability": "nonpayable",
      "type": "function"
    }
  ],
  "bytecode": "0x608060405260646002553480156200001657600080fd5b50604051620022b5380380620022b5833981810160405260208110156200003c57600080fd5b50516000808052600560209081527f05b8ccbb9d4d8fb16ea74ce3c29a41f1b461fbdaff4714a0d9a8eb05499746bc80546001600160801b031916670de0b6b3a7640000179055600380546001600160a01b038086166201000090810262010000600160b01b031990931692909217928390556040805163095ea7b360e01b81523060048201526000196024820152905192909304169363095ea7b393604480850194919392918390030190829087803b158015620000fa57600080fd5b505af11580156200010f573d6000803e3d6000fd5b505050506040513d60208110156200012657600080fd5b506200013d9050816001600160e01b036200014416565b50620002ea565b60025460035461ffff161062000196576040805162461bcd60e51b815260206004820152601260248201527113585e081d1bdad95b9cc81c995858da195960721b604482015290519081900360640190fd5b60035460408051639f3cb65560e01b81526008600482015261ffff90921660248301526001600160a01b03831660448301525173__$8062148d1df512f0298588fcbbe705a0e9$__91639f3cb655916064808301926020929190829003018186803b1580156200020557600080fd5b505af41580156200021a573d6000803e3d6000fd5b505050506040513d60208110156200023157600080fd5b505162000285576040805162461bcd60e51b815260206004820152601860248201527f546f6b656e20616c726561647920726567697374657265640000000000000000604482015290519081900360640190fd5b600354604080516001600160a01b038416815261ffff909216602083015280517fe4b282c4351ffe36572a572de193a7de086edc47c9e62669fe6ab49fc53a33139281900390910190a1506003805461ffff8082166001011661ffff19909116179055565b611fbb80620002fa6000396000f3fe608060405234801561001057600080fd5b50600436106101585760003560e01c8063b3c0afa1116100c3578063ef574d231161007c578063ef574d2314610542578063f36b635514610568578063f3f47982146105a0578063f47c84c5146105ce578063f940e385146105d6578063fb736d321461060457610158565b8063b3c0afa114610464578063c33eb9f6146104b0578063d48bfca7146104de578063d4fac45d14610504578063e48c015e14610532578063e720ac8e1461053a57610158565b8063647846a511610115578063647846a5146102ff57806366367c1014610307578063793b8c6d146103445780638e499bcf146103c4578063907767c0146103e35780639bb0f5991461042a57610158565b806317569c1d1461015d57806326c3d394146101775780632f10d082146101c5578063397a1b281461020257806347e7ef24146102305780634bdc1b4c1461025c575b600080fd5b61016561060c565b60408051918252519081900360200190f35b610165600480360360a081101561018d57600080fd5b5061ffff813581169160208101359091169063ffffffff604082013516906001600160801b0360608201358116916080013516610618565b6101e6600480360360208110156101db57600080fd5b503561ffff1661063d565b604080516001600160a01b039092168252519081900360200190f35b61022e6004803603604081101561021857600080fd5b506001600160a01b0381351690602001356106cf565b005b61022e6004803603604081101561024657600080fd5b506001600160a01b0381351690602001356106e5565b61022e6004803603602081101561027257600080fd5b81019060208101813564010000000081111561028d57600080fd5b82018360208201111561029f57600080fd5b803590602001918460208302840111640100000000831117156102c157600080fd5b9190808060200260200160405190810160405280939291908181526020018383602002808284376000920191909152509295506107e6945050505050565b6101e6610a66565b6103286004803603602081101561031d57600080fd5b503561ffff16610a7b565b604080516001600160801b039092168252519081900360200190f35b6103706004803603604081101561035a57600080fd5b506001600160a01b038135169060200135610a96565b6040805161ffff988916815296909716602087015263ffffffff948516868801529290931660608501526001600160801b03908116608085015291821660a08401521660c082015290519081900360e00190f35b6103cc610b15565b6040805161ffff9092168252519081900360200190f35b610411600480360360408110156103f957600080fd5b506001600160a01b0381358116916020013516610b1f565b6040805163ffffffff9092168252519081900360200190f35b6104506004803603602081101561044057600080fd5b50356001600160a01b0316610b42565b604080519115158252519081900360200190f35b6104926004803603604081101561047a57600080fd5b506001600160a01b0381358116916020013516610ba7565b6040805192835263ffffffff90911660208301528051918290030190f35b610492600480360360408110156104c657600080fd5b506001600160a01b0381358116916020013516610c01565b61022e600480360360208110156104f457600080fd5b50356001600160a01b0316610c5b565b6101656004803603604081101561051a57600080fd5b506001600160a01b0381358116916020013516610dfc565b610411610f27565b610411610f2d565b6103cc6004803603602081101561055857600080fd5b50356001600160a01b0316610f35565b61022e6004803603606081101561057e57600080fd5b5080356001600160a01b0316906020810135906040013563ffffffff16610f9a565b610450600480360360408110156105b657600080fd5b506001600160a01b03813581169160200135166110a1565b610165611119565b61022e600480360360408110156105ec57600080fd5b506001600160a01b038135811691602001351661111f565b610165611316565b61012c42819006900390565b600061062f8686610627610f2d565b87878761131b565b61ffff169695505050505050565b60408051632ffeb2d760e21b81526008600482015261ffff83166024820152905160009173__$8062148d1df512f0298588fcbbe705a0e9$__9163bffacb5c91604480820192602092909190829003018186803b15801561069d57600080fd5b505af41580156106b1573d6000803e3d6000fd5b505050506040513d60208110156106c757600080fd5b505192915050565b6106e182826106dc610f2d565b610f9a565b5050565b6106ef3383611884565b6106fb82333084611944565b336000908152602081815260408083206001600160a01b0386168452909152902060010154610730908263ffffffff6119a416565b336000908152602081815260408083206001600160a01b038716845290915290206001015561075d610f2d565b336000818152602081815260408083206001600160a01b0388168085529252909120600201805463ffffffff191663ffffffff94909416939093179092557fc11cc34e93c67a93382b99f2498e9937198798f3c1c2888008ffc0eeb82f68c4836107c5610f2d565b6040805192835263ffffffff90911660208301528051918290030190a35050565b600060016107f2610f2d565b03905060005b82518161ffff161015610a615733600090815260046020526040902083516108d39190859061ffff851690811061082b57fe5b602002602001015161ffff168154811061084157fe5b60009182526020918290206040805160e0810182526002909302909101805461ffff8082168552620100008204169484019490945263ffffffff6401000000008504811692840192909252600160401b840490911660608301526001600160801b03600160601b909304831660808301526001015480831660a0830152600160801b900490911660c0820152836119fe565b61098f573360009081526004602052604090208351849061ffff84169081106108f857fe5b602002602001015161ffff168154811061090e57fe5b60009182526020822060029091020180546001600160e01b031916815560010155825133907f7b0a9854603fbbe7606a58b70d113bd0d1ec8475f1b8cc9603c2d377e67835cd90859061ffff851690811061096557fe5b6020026020010151604051808261ffff1661ffff16815260200191505060405180910390a2610a59565b3360009081526004602052604090208351839190859061ffff85169081106109b357fe5b602002602001015161ffff16815481106109c957fe5b906000526020600020906002020160000160086101000a81548163ffffffff021916908363ffffffff160217905550336001600160a01b03167f7a02963a37046835196f1a3185a036fd67cfca72283e46e4b3cdb99939851937848361ffff1681518110610a3357fe5b6020026020010151604051808261ffff1661ffff16815260200191505060405180910390a25b6001016107f8565b505050565b6003546201000090046001600160a01b031681565b6005602052600090815260409020546001600160801b031681565b60046020528160005260406000208181548110610aaf57fe5b60009182526020909120600290910201805460019091015461ffff808316945062010000830416925063ffffffff6401000000008304811692600160401b8104909116916001600160801b03600160601b90920482169181811691600160801b90041687565b60035461ffff1681565b600160209081526000928352604080842090915290825290205463ffffffff1681565b60408051636e8930a360e11b8152600860048201526001600160a01b0383166024820152905160009173__$8062148d1df512f0298588fcbbe705a0e9$__9163dd12614691604480820192602092909190829003018186803b15801561069d57600080fd5b600080610bb2611e49565b5050506001600160a01b039182166000908152602081815260408083209390941682529182528290208251808401909352600181015480845260029091015463ffffffff169290910182905291565b600080610c0c611e49565b5050506001600160a01b039182166000908152602081815260408083209390941682529182528290208251808401909352600381015480845260049091015463ffffffff169290910182905291565b60025460035461ffff1610610cac576040805162461bcd60e51b815260206004820152601260248201527113585e081d1bdad95b9cc81c995858da195960721b604482015290519081900360640190fd5b60035460408051639f3cb65560e01b81526008600482015261ffff90921660248301526001600160a01b03831660448301525173__$8062148d1df512f0298588fcbbe705a0e9$__91639f3cb655916064808301926020929190829003018186803b158015610d1a57600080fd5b505af4158015610d2e573d6000803e3d6000fd5b505050506040513d6020811015610d4457600080fd5b5051610d97576040805162461bcd60e51b815260206004820152601860248201527f546f6b656e20616c726561647920726567697374657265640000000000000000604482015290519081900360640190fd5b600354604080516001600160a01b038416815261ffff909216602083015280517fe4b282c4351ffe36572a572de193a7de086edc47c9e62669fe6ab49fc53a33139281900390910190a1506003805461ffff8082166001011661ffff19909116179055565b6001600160a01b03808316600090815260208181526040808320938516835292905290812054610e2a610f2d565b6001600160a01b038086166000908152602081815260408083209388168352929052206002015463ffffffff91821691161015610e9c576001600160a01b0380851660009081526020818152604080832093871683529290522060010154610e9990829063ffffffff6119a416565b90505b610ea4610f2d565b6001600160a01b038086166000908152602081815260408083209388168352929052206004015463ffffffff91821691161015610f20576001600160a01b0380851660009081526020818152604080832093871683529290522060030154610f1d90610f109083611a31565b829063ffffffff611a4716565b90505b9392505050565b61012c81565b61012c420490565b6040805163b3129e1f60e01b8152600860048201526001600160a01b0383166024820152905160009173__$8062148d1df512f0298588fcbbe705a0e9$__9163b3129e1f91604480820192602092909190829003018186803b15801561069d57600080fd5b610fa433846110a1565b15610fb357610fb3338461111f565b610fbb610f2d565b63ffffffff168163ffffffff1610156110055760405162461bcd60e51b8152600401808060200182810382526022815260200180611f646022913960400191505060405180910390fd5b60408051808201825283815263ffffffff83811660208084018281523360008181528084528781206001600160a01b038c16808352908552908890209651600388015591516004909601805463ffffffff19169690951695909517909355845187815290810191909152835191937f2c6245af506f0fc1089918c02c1d01bde9cc807609b334b3e7644d6dfb5a6c5e92918290030190a3505050565b60006110ab610f2d565b6001600160a01b038085166000908152602081815260408083209387168352929052206004015463ffffffff9182169116108015610f205750506001600160a01b0391821660009081526020818152604080832093909416825291909152206004015463ffffffff16151590565b60025481565b6111298282611884565b611131610f2d565b6001600160a01b038084166000908152602081815260408083209386168352929052206004015463ffffffff91821691161061119e5760405162461bcd60e51b8152600401808060200182810382526026815260200180611f146026913960400191505060405180910390fd5b6111a6610f2d565b6001600160a01b0380841660009081526001602090815260408083209386168352929052205463ffffffff9182169116106112125760405162461bcd60e51b8152600401808060200182810382526045815260200180611ead6045913960600191505060405180910390fd5b6001600160a01b03828116600090815260208181526040808320938516835292905290812080546003909101546112499190611a31565b6001600160a01b0380851660009081526020818152604080832093871683529290522054909150611280908263ffffffff611a4716565b6001600160a01b0384811660009081526020818152604080832093871683529290529081209182556003820155600401805463ffffffff191690556112c6828483611a89565b816001600160a01b0316836001600160a01b03167f9b1bfa7fa9ee420a16e124f794c35ac9f90472acc99140eb2f6447c714cad8eb836040518082815260200191505060405180910390a3505050565b601e81565b6040805163ab8978b760e01b81526008600482015261ffff88166024820152905160009173__$8062148d1df512f0298588fcbbe705a0e9$__9163ab8978b791604480820192602092909190829003018186803b15801561137b57600080fd5b505af415801561138f573d6000803e3d6000fd5b505050506040513d60208110156113a557600080fd5b50516113f8576040805162461bcd60e51b815260206004820152601860248201527f42757920746f6b656e206d757374206265206c69737465640000000000000000604482015290519081900360640190fd5b6040805163ab8978b760e01b81526008600482015261ffff88166024820152905173__$8062148d1df512f0298588fcbbe705a0e9$__9163ab8978b7916044808301926020929190829003018186803b15801561145457600080fd5b505af4158015611468573d6000803e3d6000fd5b505050506040513d602081101561147e57600080fd5b50516114d1576040805162461bcd60e51b815260206004820152601960248201527f53656c6c20746f6b656e206d757374206265206c697374656400000000000000604482015290519081900360640190fd5b8561ffff168761ffff16141561152e576040805162461bcd60e51b815260206004820152601c60248201527f45786368616e676520746f6b656e73206e6f742064697374696e637400000000604482015290519081900360640190fd5b611536610f2d565b63ffffffff168563ffffffff1610156115805760405162461bcd60e51b8152600401808060200182810382526022815260200180611ef26022913960400191505060405180910390fd5b60046000336001600160a01b03166001600160a01b031681526020019081526020016000206040518060e001604052808961ffff1681526020018861ffff1681526020018763ffffffff1681526020018663ffffffff168152602001856001600160801b03168152602001846001600160801b0316815260200160006001600160801b0316815250908060018154018082558091505060019003906000526020600020906002020160009091909190915060008201518160000160006101000a81548161ffff021916908361ffff16021790555060208201518160000160026101000a81548161ffff021916908361ffff16021790555060408201518160000160046101000a81548163ffffffff021916908363ffffffff16021790555060608201518160000160086101000a81548163ffffffff021916908363ffffffff160217905550608082015181600001600c6101000a8154816001600160801b0302191690836001600160801b0316021790555060a08201518160010160006101000a8154816001600160801b0302191690836001600160801b0316021790555060c08201518160010160106101000a8154816001600160801b0302191690836001600160801b0316021790555050506000611784600160046000336001600160a01b03166001600160a01b031681526020019081526020016000208054905003611adb565b6040805161ffff808416825263ffffffff808b1660208401528916828401526001600160801b038089166060840152871660808301529151929350818a1692918b169133917fdecf6fde8243981299f7b7a776f29a9fc67a2c9848e25d77c50eb11fa58a7e21919081900360a00190a460408051634743bd0360e11b815260066004820152336024820152905173__$755753f640aec5146d738bd84482537ace$__91638e877a06916044808301926020929190829003018186803b15801561184c57600080fd5b505af4158015611860573d6000803e3d6000fd5b505050506040513d602081101561187657600080fd5b509098975050505050505050565b6001600160a01b038083166000908152602081815260408083209385168352929052206002015463ffffffff1680158015906118cc57506118c3610f2d565b63ffffffff1681105b15610a61576001600160a01b0383811660009081526020818152604080832093861683529290522060018101549054611904916119a4565b6001600160a01b0393841660009081526020818152604080832095909616825293909352928220928355506001820155600201805463ffffffff19169055565b604080516001600160a01b0380861660248301528416604482015260648082018490528251808303909101815260849091019091526020810180516001600160e01b03166323b872dd60e01b17905261199e908590611b22565b50505050565b600082820183811015610f20576040805162461bcd60e51b815260206004820152601b60248201527f536166654d6174683a206164646974696f6e206f766572666c6f770000000000604482015290519081900360640190fd5b60008163ffffffff16836040015163ffffffff1611158015610f2057505060609091015163ffffffff9182169116101590565b6000818310611a405781610f20565b5090919050565b6000610f2083836040518060400160405280601e81526020017f536166654d6174683a207375627472616374696f6e206f766572666c6f770000815250611bd3565b604080516001600160a01b038416602482015260448082018490528251808303909101815260649091019091526020810180516001600160e01b031663a9059cbb60e01b179052610a61908490611b22565b6000620100008210611b1e5760405162461bcd60e51b8152600401808060200182810382526026815260200180611e616026913960400191505060405180910390fd5b5090565b6060611b77826040518060400160405280602081526020017f5361666545524332303a206c6f772d6c6576656c2063616c6c206661696c6564815250856001600160a01b0316611c6a9092919063ffffffff16565b805190915015610a6157808060200190516020811015611b9657600080fd5b5051610a615760405162461bcd60e51b815260040180806020018281038252602a815260200180611f3a602a913960400191505060405180910390fd5b60008184841115611c625760405162461bcd60e51b81526004018080602001828103825283818151815260200191508051906020019080838360005b83811015611c27578181015183820152602001611c0f565b50505050905090810190601f168015611c545780820380516001836020036101000a031916815260200191505b509250505060405180910390fd5b505050900390565b6060611c798484600085611c81565b949350505050565b606082471015611cc25760405162461bcd60e51b8152600401808060200182810382526026815260200180611e876026913960400191505060405180910390fd5b611ccb85611ddd565b611d1c576040805162461bcd60e51b815260206004820152601d60248201527f416464726573733a2063616c6c20746f206e6f6e2d636f6e7472616374000000604482015290519081900360640190fd5b60006060866001600160a01b031685876040518082805190602001908083835b60208310611d5b5780518252601f199092019160209182019101611d3c565b6001836020036101000a03801982511681845116808217855250505050505090500191505060006040518083038185875af1925050503d8060008114611dbd576040519150601f19603f3d011682016040523d82523d6000602084013e611dc2565b606091505b5091509150611dd2828286611de3565b979650505050505050565b3b151590565b60608315611df2575081610f20565b825115611e025782518084602001fd5b60405162461bcd60e51b8152602060048201818152845160248401528451859391928392604401919085019080838360008315611c27578181015183820152602001611c0f565b60408051808201909152600080825260208201529056fe53616665436173743a2076616c756520646f65736e27742066697420696e2031362062697473416464726573733a20696e73756666696369656e742062616c616e636520666f722063616c6c5769746864726177206e6f7420706f737369626c6520666f7220746f6b656e20746861742069732074726164656420696e207468652063757272656e742061756374696f6e4f72646572732063616e277420626520706c6163656420696e207468652070617374776974686472617720776173206e6f7420726567697374657265642070726576696f75736c795361666545524332303a204552433230206f7065726174696f6e20646964206e6f742073756363656564526571756573742063616e6e6f74206265206d61646520696e207468652070617374a264697066735822122003d8bbf2516ea95d9b412ed25d6d47ec9cf7237ef173d9e63671cf9357cc53ec64736f6c63430006060033",
  "linkReferences": {
    "contracts/libraries/IdToAddressBiMap.sol": {
      "IdToAddressBiMap": [
        {
          "length": 20,
          "start": 459
        },
        {
          "length": 20,
          "start": 2397
        },
        {
          "length": 20,
          "start": 3687
        },
        {
          "length": 20,
          "start": 4059
        },
        {
          "length": 20,
          "start": 4698
        },
        {
          "length": 20,
          "start": 5691
        },
        {
          "length": 20,
          "start": 5909
        }
      ]
    },
    "contracts/libraries/IterableAppendOnlySet.sol": {
      "IterableAppendOnlySet": [
        {
          "length": 20,
          "start": 6925
        }
      ]
    }
  },
  "deployedLinkReferences": {
    "contracts/libraries/IdToAddressBiMap.sol": {
      "IdToAddressBiMap": [
        {
          "length": 20,
          "start": 1635
        },
        {
          "length": 20,
          "start": 2925
        },
        {
          "length": 20,
          "start": 3297
        },
        {
          "length": 20,
          "start": 3936
        },
        {
          "length": 20,
          "start": 4929
        },
        {
          "length": 20,
          "start": 5147
        }
      ]
    },
    "contracts/libraries/IterableAppendOnlySet.sol": {
      "IterableAppendOnlySet": [
        {
          "length": 20,
          "start": 6163
        }
      ]
    }
  }
}