{
  "_format": "hh-sol-artifact-1",
  "contractName": "GnosisProtocolRelayer",
  "sourceName": "contracts/GnosisProtocolRelayer.sol",
  "abi": [
    {
      "inputs": [
        {
          "internalType": "address payable",
          "name": "_owner",
          "type": "address"
        },
        {
          "internalType": "address",
          "name": "_batchExchange",
          "type": "address"
        },
        {
          "internalType": "address",
          "name": "_epochTokenLocker",
          "type": "address"
        },
        {
          "internalType": "address[]",
          "name": "_factoryWhitelist",
          "type": "address[]"
        },
        {
          "internalType": "address",
          "name": "_WETH",
          "type": "address"
        },
        {
          "internalType": "contract OracleCreator",
          "name": "_oracleCreater",
          "type": "address"
        }
      ],
      "stateMutability": "nonpayable",
      "type": "constructor"
    },
    {
      "anonymous": false,
      "inputs": [
        {
          "indexed": true,
          "internalType": "uint256",
          "name": "_orderIndex",
          "type": "uint256"
        }
      ],
      "name": "NewOrder",
      "type": "event"
    },
    {
      "anonymous": false,
      "inputs": [
        {
          "indexed": true,
          "internalType": "uint256",
          "name": "_orderIndex",
          "type": "uint256"
        },
        {
          "indexed": false,
          "internalType": "uint256",
          "name": "_gpOrderID",
          "type": "uint256"
        },
        {
          "indexed": false,
          "internalType": "uint16",
          "name": "buyToken",
          "type": "uint16"
        },
        {
          "indexed": false,
          "internalType": "uint16",
          "name": "sellToken",
          "type": "uint16"
        },
        {
          "indexed": false,
          "internalType": "uint32",
          "name": "validUntil",
          "type": "uint32"
        },
        {
          "indexed": false,
          "internalType": "uint128",
          "name": "expectedAmountMin",
          "type": "uint128"
        },
        {
          "indexed": false,
          "internalType": "uint128",
          "name": "tokenInAmount",
          "type": "uint128"
        }
      ],
      "name": "PlacedTrade",
      "type": "event"
    },
    {
      "anonymous": false,
      "inputs": [
        {
          "indexed": true,
          "internalType": "uint256",
          "name": "_orderIndex",
          "type": "uint256"
        }
      ],
      "name": "WithdrawnExpiredOrder",
      "type": "event"
    },
    {
      "inputs": [],
      "name": "BATCH_TIME",
      "outputs": [
        {
          "internalType": "uint32",
          "name": "",
          "type": "uint32"
        }
      ],
      "stateMutability": "view",
      "type": "function"
    },
    {
      "inputs": [],
      "name": "BOUNTY",
      "outputs": [
        {
          "internalType": "uint256",
          "name": "",
          "type": "uint256"
        }
      ],
      "stateMutability": "view",
      "type": "function"
    },
    {
      "inputs": [
        {
          "internalType": "address",
          "name": "token",
          "type": "address"
        },
        {
          "internalType": "uint256",
          "name": "amount",
          "type": "uint256"
        }
      ],
      "name": "ERC20Withdraw",
      "outputs": [],
      "stateMutability": "nonpayable",
      "type": "function"
    },
    {
      "inputs": [
        {
          "internalType": "uint256",
          "name": "amount",
          "type": "uint256"
        }
      ],
      "name": "ETHWithdraw",
      "outputs": [],
      "stateMutability": "nonpayable",
      "type": "function"
    },
    {
      "inputs": [],
      "name": "GAS_ORACLE_UPDATE",
      "outputs": [
        {
          "internalType": "uint256",
          "name": "",
          "type": "uint256"
        }
      ],
      "stateMutability": "view",
      "type": "function"
    },
    {
      "inputs": [
        {
          "internalType": "uint256",
          "name": "orderIndex",
          "type": "uint256"
        }
      ],
      "name": "GetOrderDetails",
      "outputs": [
        {
          "components": [
            {
              "internalType": "address",
              "name": "tokenIn",
              "type": "address"
            },
            {
              "internalType": "address",
              "name": "tokenOut",
              "type": "address"
            },
            {
              "internalType": "uint128",
              "name": "tokenInAmount",
              "type": "uint128"
            },
            {
              "internalType": "uint128",
              "name": "minTokenOutAmount",
              "type": "uint128"
            },
            {
              "internalType": "uint256",
              "name": "priceTolerance",
              "type": "uint256"
            },
            {
              "internalType": "uint256",
              "name": "minReserve",
              "type": "uint256"
            },
            {
              "internalType": "address",
              "name": "oraclePair",
              "type": "address"
            },
            {
              "internalType": "uint256",
              "name": "startDate",
              "type": "uint256"
            },
            {
              "internalType": "uint256",
              "name": "deadline",
              "type": "uint256"
            },
            {
              "internalType": "uint256",
              "name": "oracleId",
              "type": "uint256"
            },
            {
              "internalType": "uint256",
              "name": "gpOrderId",
              "type": "uint256"
            },
            {
              "internalType": "address",
              "name": "factory",
              "type": "address"
            },
            {
              "internalType": "bool",
              "name": "executed",
              "type": "bool"
            }
          ],
          "internalType": "struct GnosisProtocolRelayer.Order",
          "name": "",
          "type": "tuple"
        }
      ],
      "stateMutability": "view",
      "type": "function"
    },
    {
      "inputs": [],
      "name": "ORACLE_WINDOW_TIME",
      "outputs": [
        {
          "internalType": "uint256",
          "name": "",
          "type": "uint256"
        }
      ],
      "stateMutability": "view",
      "type": "function"
    },
    {
      "inputs": [],
      "name": "PARTS_PER_MILLION",
      "outputs": [
        {
          "internalType": "uint256",
          "name": "",
          "type": "uint256"
        }
      ],
      "stateMutability": "view",
      "type": "function"
    },
    {
      "inputs": [],
      "name": "UINT128_MAX_VALUE",
      "outputs": [
        {
          "internalType": "uint128",
          "name": "",
          "type": "uint128"
        }
      ],
      "stateMutability": "view",
      "type": "function"
    },
    {
      "inputs": [],
      "name": "UINT32_MAX_VALUE",
      "outputs": [
        {
          "internalType": "uint32",
          "name": "",
          "type": "uint32"
        }
      ],
      "stateMutability": "view",
      "type": "function"
    },
    {
      "inputs": [],
      "name": "WETH",
      "outputs": [
        {
          "internalType": "address",
          "name": "",
          "type": "address"
        }
      ],
      "stateMutability": "view",
      "type": "function"
    },
    {
      "inputs": [],
      "name": "batchExchange",
      "outputs": [
        {
          "internalType": "address",
          "name": "",
          "type": "address"
        }
      ],
      "stateMutability": "view",
      "type": "function"
    },
    {
      "inputs": [
        {
          "internalType": "uint256",
          "name": "orderIndex",
          "type": "uint256"
        }
      ],
      "name": "cancelOrder",
      "outputs": [],
      "stateMutability": "nonpayable",
      "type": "function"
    },
    {
      "inputs": [
        {
          "internalType": "address payable",
          "name": "_newOwner",
          "type": "address"
        }
      ],
      "name": "changeOwner",
      "outputs": [],
      "stateMutability": "nonpayable",
      "type": "function"
    },
    {
      "inputs": [],
      "name": "epochTokenLocker",
      "outputs": [
        {
          "internalType": "address",
          "name": "",
          "type": "address"
        }
      ],
      "stateMutability": "view",
      "type": "function"
    },
    {
      "inputs": [
        {
          "internalType": "address",
          "name": "",
          "type": "address"
        }
      ],
      "name": "exchangeFactoryWhitelist",
      "outputs": [
        {
          "internalType": "bool",
          "name": "",
          "type": "bool"
        }
      ],
      "stateMutability": "view",
      "type": "function"
    },
    {
      "inputs": [],
      "name": "oracleCreator",
      "outputs": [
        {
          "internalType": "contract OracleCreator",
          "name": "",
          "type": "address"
        }
      ],
      "stateMutability": "view",
      "type": "function"
    },
    {
      "inputs": [],
      "name": "orderCount",
      "outputs": [
        {
          "internalType": "uint256",
          "name": "",
          "type": "uint256"
        }
      ],
      "stateMutability": "view",
      "type": "function"
    },
    {
      "inputs": [
        {
          "internalType": "address",
          "name": "tokenIn",
          "type": "address"
        },
        {
          "internalType": "address",
          "name": "tokenOut",
          "type": "address"
        },
        {
          "internalType": "uint128",
          "name": "tokenInAmount",
          "type": "uint128"
        },
        {
          "internalType": "uint128",
          "name": "minTokenOutAmount",
          "type": "uint128"
        },
        {
          "internalType": "uint256",
          "name": "priceTolerance",
          "type": "uint256"
        },
        {
          "internalType": "uint256",
          "name": "minReserve",
          "type": "uint256"
        },
        {
          "internalType": "uint256",
          "name": "startDate",
          "type": "uint256"
        },
        {
          "internalType": "uint256",
          "name": "deadline",
          "type": "uint256"
        },
        {
          "internalType": "address",
          "name": "factory",
          "type": "address"
        }
      ],
      "name": "orderTrade",
      "outputs": [
        {
          "internalType": "uint256",
          "name": "orderIndex",
          "type": "uint256"
        }
      ],
      "stateMutability": "payable",
      "type": "function"
    },
    {
      "inputs": [
        {
          "internalType": "uint256",
          "name": "",
          "type": "uint256"
        }
      ],
      "name": "orders",
      "outputs": [
        {
          "internalType": "address",
          "name": "tokenIn",
          "type": "address"
        },
        {
          "internalType": "address",
          "name": "tokenOut",
          "type": "address"
        },
        {
          "internalType": "uint128",
          "name": "tokenInAmount",
          "type": "uint128"
        },
        {
          "internalType": "uint128",
          "name": "minTokenOutAmount",
          "type": "uint128"
        },
        {
          "internalType": "uint256",
          "name": "priceTolerance",
          "type": "uint256"
        },
        {
          "internalType": "uint256",
          "name": "minReserve",
          "type": "uint256"
        },
        {
          "internalType": "address",
          "name": "oraclePair",
          "type": "address"
        },
        {
          "internalType": "uint256",
          "name": "startDate",
          "type": "uint256"
        },
        {
          "internalType": "uint256",
          "name": "deadline",
          "type": "uint256"
        },
        {
          "internalType": "uint256",
          "name": "oracleId",
          "type": "uint256"
        },
        {
          "internalType": "uint256",
          "name": "gpOrderId",
          "type": "uint256"
        },
        {
          "internalType": "address",
          "name": "factory",
          "type": "address"
        },
        {
          "internalType": "bool",
          "name": "executed",
          "type": "bool"
        }
      ],
      "stateMutability": "view",
      "type": "function"
    },
    {
      "inputs": [],
      "name": "owner",
      "outputs": [
        {
          "internalType": "address payable",
          "name": "",
          "type": "address"
        }
      ],
      "stateMutability": "view",
      "type": "function"
    },
    {
      "inputs": [
        {
          "internalType": "uint256",
          "name": "orderIndex",
          "type": "uint256"
        }
      ],
      "name": "placeTrade",
      "outputs": [],
      "stateMutability": "nonpayable",
      "type": "function"
    },
    {
      "inputs": [
        {
          "internalType": "address",
          "name": "token",
          "type": "address"
        },
        {
          "internalType": "uint256",
          "name": "amount",
          "type": "uint256"
        }
      ],
      "name": "requestWithdraw",
      "outputs": [],
      "stateMutability": "nonpayable",
      "type": "function"
    },
    {
      "inputs": [
        {
          "internalType": "uint256",
          "name": "orderIndex",
          "type": "uint256"
        }
      ],
      "name": "updateOracle",
      "outputs": [],
      "stateMutability": "nonpayable",
      "type": "function"
    },
    {
      "inputs": [
        {
          "internalType": "uint256",
          "name": "orderIndex",
          "type": "uint256"
        }
      ],
      "name": "withdrawExpiredOrder",
      "outputs": [],
      "stateMutability": "nonpayable",
      "type": "function"
    },
    {
      "inputs": [
        {
          "internalType": "address",
          "name": "token",
          "type": "address"
        }
      ],
      "name": "withdrawToken",
      "outputs": [],
      "stateMutability": "nonpayable",
      "type": "function"
    },
    {
      "stateMutability": "payable",
      "type": "receive"
    }
  ],
  "bytecode": "0x6101c0604052620291ac608052620f424060a052662386f26fc1000060c052607860e0526001600160e01b0319610120526001600160801b0319610140523480156200004a57600080fd5b5060405162003521380380620035218339810160408190526200006d91620001f2565b60008351116200009a5760405162461bcd60e51b815260040162000091906200033e565b60405180910390fd5b6001600160601b0319606086811b82166101605285811b821661018052600180546001600160a01b038581166001600160a01b031992831617909255600080548b841692169190911790559084901b9091166101a0526040805163724600af60e11b815290519186169163e48c015e91600480820192602092909190829003018186803b1580156200012b57600080fd5b505afa15801562000140573d6000803e3d6000fd5b505050506040513d601f19601f8201168201806040525081019062000166919062000311565b60e01b6001600160e01b0319166101005260005b8351811015620001d2576001600460008684815181106200019757fe5b6020908102919091018101516001600160a01b03168252810191909152604001600020805460ff19169115159190911790556001016200017a565b50505050505050620003ce565b8051620001ec81620003b5565b92915050565b60008060008060008060c087890312156200020b578182fd5b86516200021881620003b5565b809650506020808801516200022d81620003b5565b60408901519096506200024081620003b5565b60608901519095506001600160401b03808211156200025d578485fd5b818a018b601f8201126200026f578586fd5b805192508183111562000280578586fd5b8383029150620002928483016200038e565b8381528481019082860184840187018f1015620002ad578889fd5b8894505b85851015620002db57620002c68f82620001df565b835260019490940193918601918601620002b1565b50809850505050505050620002f48860808901620001df565b9150620003058860a08901620001df565b90509295509295509295565b60006020828403121562000323578081fd5b815163ffffffff8116811462000337578182fd5b9392505050565b60208082526030908201527f476e6f73697350726f746f636f6c52656c617965723a204d495353494e475f4660408201526f1050d513d49657d5d2125511531254d560821b606082015260800190565b6040518181016001600160401b0381118282101715620003ad57600080fd5b604052919050565b6001600160a01b0381168114620003cb57600080fd5b50565b60805160a05160c05160e0516101005160e01c6101205160e01c6101405160801c6101605160601c6101805160601c6101a05160601c61304d620004d46000398061059552806105e35280610a0e5280610a605280610b015280610deb5280610e0e5280610e9e528061138c528061167c5280611b965250806104cd528061072c52806109a3528061194c528061199852508061089f528061090d5280611a285280611ad25280611d665250806104a95280611cc552508061079b5280610d4e525080611d105280611ea652508061093152806111e25250806114cb52806117bd525080610d0e5280611c405280611eca525080610c0952806114ef525061304d6000f3fe6080604052600436106101855760003560e01c80638da5cb5b116100d1578063c58125bc1161008a578063d530f4e711610064578063d530f4e714610430578063e48c015e14610450578063ec6ea81214610465578063ffc5ea0d1461047a5761018c565b8063c58125bc146103db578063d081f2b8146103fb578063d41bee56146104105761018c565b80638da5cb5b146103255780638efcc7501461033a578063a6f9dae11461034d578063a85c38ef1461036d578063ad5c4648146103a6578063c23c1c9f146103bb5761018c565b80633e93e2011161013e57806378f753171161011857806378f75317146102c65780638570c8a9146102db57806389476069146102f05780638c0a63bf146103105761018c565b80633e93e2011461026f578063514fcac71461029157806360769551146102b15761018c565b806309656365146101915780630b34538e146101bc5780631373f170146101de5780632453ffa81461020b5780632cb2db611461022d578063397a1b281461024f5761018c565b3661018c57005b600080fd5b34801561019d57600080fd5b506101a66104a7565b6040516101b39190612f05565b60405180910390f35b3480156101c857600080fd5b506101d16104cb565b6040516101b39190612618565b3480156101ea57600080fd5b506101fe6101f93660046123fa565b6104ef565b6040516101b3919061275c565b34801561021757600080fd5b50610220610504565b6040516101b39190612f56565b34801561023957600080fd5b5061024d61024836600461258f565b61050a565b005b34801561025b57600080fd5b5061024d61026a3660046124ce565b6106eb565b34801561027b57600080fd5b50610284610799565b6040516101b39190612fdc565b34801561029d57600080fd5b5061024d6102ac36600461258f565b6107bd565b3480156102bd57600080fd5b506101d161090b565b3480156102d257600080fd5b5061022061092f565b3480156102e757600080fd5b506101d1610953565b3480156102fc57600080fd5b5061024d61030b3660046123fa565b610962565b34801561031c57600080fd5b50610220610c07565b34801561033157600080fd5b506101d1610c2b565b610220610348366004612439565b610c3a565b34801561035957600080fd5b5061024d6103683660046123fa565b6112bc565b34801561037957600080fd5b5061038d61038836600461258f565b611308565b6040516101b39d9c9b9a99989796959493929190612646565b3480156103b257600080fd5b506101d161138a565b3480156103c757600080fd5b5061024d6103d636600461258f565b6113ae565b3480156103e757600080fd5b5061024d6103f636600461258f565b61177b565b34801561040757600080fd5b506102206117bb565b34801561041c57600080fd5b5061024d61042b36600461258f565b6117df565b34801561043c57600080fd5b5061024d61044b3660046124ce565b611e62565b34801561045c57600080fd5b50610284611ea4565b34801561047157600080fd5b50610220611ec8565b34801561048657600080fd5b5061049a61049536600461258f565b611eec565b6040516101b39190612e36565b7f000000000000000000000000000000000000000000000000000000000000000081565b7f000000000000000000000000000000000000000000000000000000000000000081565b60046020526000908152604090205460ff1681565b60025481565b600081815260036020526040902060025482106105425760405162461bcd60e51b815260040161053990612d65565b60405180910390fd5b806007015442116105655760405162461bcd60e51b81526004016105399061297c565b600a810154600160a01b900460ff16156105915760405162461bcd60e51b815260040161053990612ae7565b80547f00000000000000000000000000000000000000000000000000000000000000006001600160a01b039081169116141561067d576002810154604051632e1a7d4d60e01b81526001600160a01b037f00000000000000000000000000000000000000000000000000000000000000001691632e1a7d4d91610620916001600160801b031690600401612f05565b600060405180830381600087803b15801561063a57600080fd5b505af115801561064e573d6000803e3d6000fd5b5050600054600284015461067893506001600160a01b0390911691506001600160801b0316611fc1565b6106a7565b805460005460028301546106a7926001600160a01b039081169216906001600160801b0316612053565b600a8101805460ff60a01b1916600160a01b17905560405182907f3f9d01b8340245ea975087559a7911155f1b300f5b19aa35fcc67d4adf962c8590600090a25050565b6000546001600160a01b031633146107155760405162461bcd60e51b815260040161053990612817565b60405163072f436560e31b81526001600160a01b037f0000000000000000000000000000000000000000000000000000000000000000169063397a1b289061076390859085906004016126fb565b600060405180830381600087803b15801561077d57600080fd5b505af1158015610791573d6000803e3d6000fd5b505050505050565b7f000000000000000000000000000000000000000000000000000000000000000081565b600081815260036020526040902060025482106107ec5760405162461bcd60e51b815260040161053990612d65565b6000546001600160a01b031633146108165760405162461bcd60e51b815260040161053990612817565b600a810154600160a01b900460ff166108415760405162461bcd60e51b815260040161053990612933565b6040805160018082528183019092526060916020808301908036833701905050905081600901548160008151811061087557fe5b61ffff909216602092830291909101909101526040516312f706d360e21b81526001600160a01b037f00000000000000000000000000000000000000000000000000000000000000001690634bdc1b4c906108d4908490600401612714565b600060405180830381600087803b1580156108ee57600080fd5b505af1158015610902573d6000803e3d6000fd5b50505050505050565b7f000000000000000000000000000000000000000000000000000000000000000081565b7f000000000000000000000000000000000000000000000000000000000000000081565b6001546001600160a01b031681565b6000546001600160a01b0316331461098c5760405162461bcd60e51b815260040161053990612817565b60405163f940e38560e01b81526001600160a01b037f0000000000000000000000000000000000000000000000000000000000000000169063f940e385906109da903090859060040161262c565b600060405180830381600087803b1580156109f457600080fd5b505af1158015610a08573d6000803e3d6000fd5b505050507f00000000000000000000000000000000000000000000000000000000000000006001600160a01b0316816001600160a01b03161415610b77576040516370a0823160e01b81526000906001600160a01b037f000000000000000000000000000000000000000000000000000000000000000016906370a0823190610a95903090600401612618565b602060405180830381600087803b158015610aaf57600080fd5b505af1158015610ac3573d6000803e3d6000fd5b505050506040513d601f19601f82011682018060405250810190610ae791906125a7565b604051632e1a7d4d60e01b81529091506001600160a01b037f00000000000000000000000000000000000000000000000000000000000000001690632e1a7d4d90610b36908490600401612f56565b600060405180830381600087803b158015610b5057600080fd5b505af1158015610b64573d6000803e3d6000fd5b50505050610b718161177b565b50610c04565b6040516370a0823160e01b81526000906001600160a01b038316906370a0823190610ba6903090600401612618565b60206040518083038186803b158015610bbe57600080fd5b505afa158015610bd2573d6000803e3d6000fd5b505050506040513d601f19601f82011682018060405250810190610bf691906125a7565b9050610c028282611e62565b505b50565b7f000000000000000000000000000000000000000000000000000000000000000081565b6000546001600160a01b031681565b6001600160a01b03811660009081526004602052604081205460ff16610c725760405162461bcd60e51b815260040161053990612bbb565b6000546001600160a01b03163314610c9c5760405162461bcd60e51b815260040161053990612817565b886001600160a01b03168a6001600160a01b03161415610cce5760405162461bcd60e51b815260040161053990612d22565b6000886001600160801b0316118015610cf057506000876001600160801b0316115b610d0c5760405162461bcd60e51b815260040161053990612c90565b7f0000000000000000000000000000000000000000000000000000000000000000861115610d4c5760405162461bcd60e51b8152600401610539906129c7565b7f000000000000000000000000000000000000000000000000000000000000000063ffffffff16831115610d925760405162461bcd60e51b815260040161053990612c49565b82421115610db25760405162461bcd60e51b815260040161053990612aa0565b6001600160a01b038a16610e8e57876001600160801b0316471015610de95760405162461bcd60e51b815260040161053990612cdb565b7f000000000000000000000000000000000000000000000000000000000000000099507f00000000000000000000000000000000000000000000000000000000000000006001600160a01b031663d0e30db0896001600160801b03166040518263ffffffff1660e01b81526004016000604051808303818588803b158015610e7057600080fd5b505af1158015610e84573d6000803e3d6000fd5b5050505050610ec0565b6001600160a01b038916610ec0577f000000000000000000000000000000000000000000000000000000000000000098505b6040516370a0823160e01b81526001600160801b038916906001600160a01b038c16906370a0823190610ef7903090600401612618565b60206040518083038186803b158015610f0f57600080fd5b505afa158015610f23573d6000803e3d6000fd5b505050506040513d601f19601f82011682018060405250810190610f4791906125a7565b1015610f655760405162461bcd60e51b815260040161053990612dec565b6000610f728b8b85612141565b90506001600160a01b038116610f9a5760405162461bcd60e51b8152600401610539906128f1565b610fa26121ff565b9150604051806101a001604052808c6001600160a01b031681526020018b6001600160a01b031681526020018a6001600160801b03168152602001896001600160801b03168152602001888152602001878152602001826001600160a01b031681526020018681526020018581526020016000815260200160008152602001846001600160a01b03168152602001600015158152506003600084815260200190815260200160002060008201518160000160006101000a8154816001600160a01b0302191690836001600160a01b0316021790555060208201518160010160006101000a8154816001600160a01b0302191690836001600160a01b0316021790555060408201518160020160006101000a8154816001600160801b0302191690836001600160801b0316021790555060608201518160020160106101000a8154816001600160801b0302191690836001600160801b031602179055506080820151816003015560a0820151816004015560c08201518160050160006101000a8154816001600160a01b0302191690836001600160a01b0316021790555060e0820151816006015561010082015181600701556101208201518160080155610140820151816009015561016082015181600a0160006101000a8154816001600160a01b0302191690836001600160a01b0316021790555061018082015181600a0160146101000a81548160ff021916908315150217905550905050600160009054906101000a90046001600160a01b03166001600160a01b03166306649d677f0000000000000000000000000000000000000000000000000000000000000000836040518363ffffffff1660e01b815260040161121f929190612f5f565b602060405180830381600087803b15801561123957600080fd5b505af115801561124d573d6000803e3d6000fd5b505050506040513d601f19601f8201168201806040525081019061127191906125a7565b60008381526003602052604080822060080192909255905183917fd56de72b04be4cf70c2bab5e6905fb51e28beb22f7a5d40a6dc4103149d6110691a2509998505050505050505050565b6000546001600160a01b031633146112e65760405162461bcd60e51b815260040161053990612817565b600080546001600160a01b0319166001600160a01b0392909216919091179055565b600360208190526000918252604090912080546001820154600283015493830154600484015460058501546006860154600787015460088801546009890154600a909901546001600160a01b039889169a978916996001600160801b03808a169a600160801b909a04169895861695909190811690600160a01b900460ff168d565b7f000000000000000000000000000000000000000000000000000000000000000081565b600081815260036020526040902060025482106113dd5760405162461bcd60e51b815260040161053990612d65565b80600701544211156114015760405162461bcd60e51b815260040161053990612aa0565b60015460088201546040516325fa700360e01b81526001600160a01b03909216916325fa70039161143491600401612f56565b60206040518083038186803b15801561144c57600080fd5b505afa158015611460573d6000803e3d6000fd5b505050506040513d601f19601f8201168201806040525081019061148491906124f9565b156114a15760405162461bcd60e51b815260040161053990612c01565b806006015442116114c45760405162461bcd60e51b815260040161053990612a59565b60006115267f000000000000000000000000000000000000000000000000000000000000000061151a7f00000000000000000000000000000000000000000000000000000000000000003a63ffffffff61220d16565b9063ffffffff61224a16565b90506000808360050160009054906101000a90046001600160a01b03166001600160a01b0316630902f1ac6040518163ffffffff1660e01b815260040160606040518083038186803b15801561157b57600080fd5b505afa15801561158f573d6000803e3d6000fd5b505050506040513d601f19601f820116820180604052508101906115b39190612519565b506001600160701b031691506001600160701b0316915060008460050160009054906101000a90046001600160a01b03166001600160a01b0316630dfe16816040518163ffffffff1660e01b815260040160206040518083038186803b15801561161c57600080fd5b505afa158015611630573d6000803e3d6000fd5b505050506040513d601f19601f82011682018060405250810190611654919061241d565b85549091506000906001600160a01b03161561167a5785546001600160a01b031661169c565b7f00000000000000000000000000000000000000000000000000000000000000005b9050816001600160a01b0316816001600160a01b031614156116e15785600401548410156116dc5760405162461bcd60e51b815260040161053990612b2c565b611705565b85600401548310156117055760405162461bcd60e51b815260040161053990612b2c565b6001546008870154604051634155c48560e11b81526001600160a01b03909216916382ab890a9161173891600401612f56565b600060405180830381600087803b15801561175257600080fd5b505af1158015611766573d6000803e3d6000fd5b50505050844710610902576109023386611fc1565b6000546001600160a01b031633146117a55760405162461bcd60e51b815260040161053990612817565b600054610c04906001600160a01b031682611fc1565b7f000000000000000000000000000000000000000000000000000000000000000081565b6000818152600360205260409020600254821061180e5760405162461bcd60e51b815260040161053990612d65565b600a810154600160a01b900460ff161561183a5760405162461bcd60e51b815260040161053990612ae7565b60015460088201546040516325fa700360e01b81526001600160a01b03909216916325fa70039161186d91600401612f56565b60206040518083038186803b15801561188557600080fd5b505afa158015611899573d6000803e3d6000fd5b505050506040513d601f19601f820116820180604052508101906118bd91906124f9565b6118d95760405162461bcd60e51b815260040161053990612b71565b80600701544211156118fd5760405162461bcd60e51b815260040161053990612aa0565b806006015442116119205760405162461bcd60e51b815260040161053990612a59565b600a8101805460ff60a01b1916600160a01b1790558054600282015461197a916001600160a01b0316907f0000000000000000000000000000000000000000000000000000000000000000906001600160801b031661226d565b805460028201546040516311f9fbc960e21b81526001600160a01b037f00000000000000000000000000000000000000000000000000000000000000008116936347e7ef24936119db9391909216916001600160801b0316906004016126d9565b600060405180830381600087803b1580156119f557600080fd5b505af1158015611a09573d6000803e3d6000fd5b5050825460405163ef574d2360e01b8152600093506001600160a01b037f00000000000000000000000000000000000000000000000000000000000000008116935063ef574d2392611a6092911690600401612618565b60206040518083038186803b158015611a7857600080fd5b505afa158015611a8c573d6000803e3d6000fd5b505050506040513d601f19601f82011682018060405250810190611ab0919061256d565b600183015460405163ef574d2360e01b81529192506000916001600160a01b037f000000000000000000000000000000000000000000000000000000000000000081169263ef574d2392611b0b929190911690600401612618565b60206040518083038186803b158015611b2357600080fd5b505afa158015611b37573d6000803e3d6000fd5b505050506040513d601f19601f82011682018060405250810190611b5b919061256d565b600154600885015485549293506000926001600160a01b0392831692634023282b92911615611b945786546001600160a01b0316611bb6565b7f00000000000000000000000000000000000000000000000000000000000000005b60028801546040516001600160e01b031960e086901b168152611be79392916001600160801b031690600401612f76565b60206040518083038186803b158015611bff57600080fd5b505afa158015611c13573d6000803e3d6000fd5b505050506040513d601f19601f82011682018060405250810190611c3791906125a7565b90506000611c8c7f0000000000000000000000000000000000000000000000000000000000000000611c7687600301548561220d90919063ffffffff16565b81611c7d57fe5b8491900463ffffffff61235416565b6002860154909150600160801b90046001600160801b0316811015611cc35760405162461bcd60e51b8152600401610539906127cd565b7f00000000000000000000000000000000000000000000000000000000000000006001600160801b0316811115611d0c5760405162461bcd60e51b815260040161053990612a0f565b60007f000000000000000000000000000000000000000000000000000000000000000063ffffffff16866007015481611d4157fe5b60028801546040516309b0f4e560e21b81529290910492506000916001600160a01b037f000000000000000000000000000000000000000000000000000000000000000016916326c3d39491611dab9189918b9188918a916001600160801b031690600401612f19565b602060405180830381600087803b158015611dc557600080fd5b505af1158015611dd9573d6000803e3d6000fd5b505050506040513d601f19601f82011682018060405250810190611dfd91906125a7565b60098801819055600288015460405191925089917f88ca32bc88b9ba1eb541a4d9618c0e6a930f18dcf83466822e5b20ed8ffc1b5a91611e509185918a918c9189918b916001600160801b031690612f9e565b60405180910390a25050505050505050565b6000546001600160a01b03163314611e8c5760405162461bcd60e51b815260040161053990612817565b600054610c029083906001600160a01b031683612053565b7f000000000000000000000000000000000000000000000000000000000000000081565b7f000000000000000000000000000000000000000000000000000000000000000081565b611ef4612377565b5060009081526003602081815260409283902083516101a08101855281546001600160a01b039081168252600183015481169382019390935260028201546001600160801b0380821696830196909652600160801b90049094166060850152918201546080840152600482015460a08401526005820154811660c0840152600682015460e0840152600782015461010084015260088201546101208401526009820154610140840152600a90910154908116610160830152600160a01b900460ff16151561018082015290565b604080516000808252602082019092526001600160a01b038416908390604051611feb91906125df565b60006040518083038185875af1925050503d8060008114612028576040519150601f19603f3d011682016040523d82523d6000602084013e61202d565b606091505b505090508061204e5760405162461bcd60e51b815260040161053990612da9565b505050565b60006060846001600160a01b031663a9059cbb85856040516024016120799291906126fb565b6040516020818303038152906040529060e01b6020820180516001600160e01b0383818316178352505050506040516120b291906125df565b6000604051808303816000865af19150503d80600081146120ef576040519150601f19603f3d011682016040523d82523d6000602084013e6120f4565b606091505b509150915081801561211e57508051158061211e57508080602001905181019061211e91906124f9565b61213a5760405162461bcd60e51b815260040161053990612796565b5050505050565b6001600160a01b03811660009081526004602052604081205460ff166121795760405162461bcd60e51b815260040161053990612bbb565b60405163e6a4390560e01b81526001600160a01b0383169063e6a43905906121a7908790879060040161262c565b60206040518083038186803b1580156121bf57600080fd5b505afa1580156121d3573d6000803e3d6000fd5b505050506040513d601f19601f820116820180604052508101906121f7919061241d565b949350505050565b600280546001810190915590565b60008115806122285750508082028282828161222557fe5b04145b6122445760405162461bcd60e51b81526004016105399061285e565b92915050565b808201828110156122445760405162461bcd60e51b81526004016105399061288c565b60006060846001600160a01b031663095ea7b385856040516024016122939291906126fb565b6040516020818303038152906040529060e01b6020820180516001600160e01b0383818316178352505050506040516122cc91906125df565b6000604051808303816000865af19150503d8060008114612309576040519150601f19603f3d011682016040523d82523d6000602084013e61230e565b606091505b509150915081801561233857508051158061233857508080602001905181019061233891906124f9565b61213a5760405162461bcd60e51b8152600401610539906128ba565b808203828111156122445760405162461bcd60e51b815260040161053990612767565b604080516101a081018252600080825260208201819052918101829052606081018290526080810182905260a0810182905260c0810182905260e08101829052610100810182905261012081018290526101408101829052610160810182905261018081019190915290565b80356001600160801b038116811461224457600080fd5b60006020828403121561240b578081fd5b813561241681612fed565b9392505050565b60006020828403121561242e578081fd5b815161241681612fed565b60008060008060008060008060006101208a8c031215612457578485fd5b893561246281612fed565b985060208a013561247281612fed565b97506124818b60408c016123e3565b96506124908b60608c016123e3565b955060808a0135945060a08a0135935060c08a0135925060e08a013591506101008a01356124bd81612fed565b809150509295985092959850929598565b600080604083850312156124e0578182fd5b82356124eb81612fed565b946020939093013593505050565b60006020828403121561250a578081fd5b81518015158114612416578182fd5b60008060006060848603121561252d578283fd5b835161253881613002565b602085015190935061254981613002565b604085015190925063ffffffff81168114612562578182fd5b809150509250925092565b60006020828403121561257e578081fd5b815161ffff81168114612416578182fd5b6000602082840312156125a0578081fd5b5035919050565b6000602082840312156125b8578081fd5b5051919050565b6001600160a01b03169052565b15159052565b6001600160801b03169052565b60008251815b818110156125ff57602081860181015185830152016125e5565b8181111561260d5782828501525b509190910192915050565b6001600160a01b0391909116815260200190565b6001600160a01b0392831681529116602082015260400190565b6001600160a01b038e811682528d811660208301526001600160801b038d811660408401528c166060830152608082018b905260a082018a9052881660c082015260e081018790526101008101869052610120810185905261014081018490526101a081016126b96101608301856125bf565b6126c76101808301846125cc565b9e9d5050505050505050505050505050565b6001600160a01b039290921682526001600160801b0316602082015260400190565b6001600160a01b03929092168252602082015260400190565b6020808252825182820181905260009190848201906040850190845b8181101561275057835161ffff1683529284019291840191600101612730565b50909695505050505050565b901515815260200190565b60208082526015908201527464732d6d6174682d7375622d756e646572666c6f7760581b604082015260600190565b6020808252601f908201527f5472616e7366657248656c7065723a205452414e534645525f4641494c454400604082015260600190565b6020808252602a908201527f476e6f73697350726f746f636f6c52656c617965723a20494e56414c49445f50604082015269524943455f52414e474560b01b606082015260800190565b60208082526027908201527f476e6f73697350726f746f636f6c52656c617965723a2043414c4c45525f4e4f6040820152662a2fa7aba722a960c91b606082015260800190565b60208082526014908201527364732d6d6174682d6d756c2d6f766572666c6f7760601b604082015260600190565b60208082526014908201527364732d6d6174682d6164642d6f766572666c6f7760601b604082015260600190565b6020808252601e908201527f5472616e7366657248656c7065723a20415050524f56455f4641494c45440000604082015260600190565b60208082526022908201527f476e6f73697350726f746f636f6c52656c617965723a20554e4b4f574e5f504160408201526124a960f11b606082015260800190565b60208082526029908201527f476e6f73697350726f746f636f6c52656c617965723a204f524445525f4e4f5460408201526817d1561150d555115160ba1b606082015260800190565b6020808252602b908201527f476e6f73697350726f746f636f6c52656c617965723a20444541444c494e455f60408201526a1393d517d4915050d2115160aa1b606082015260800190565b60208082526028908201527f476e6f73697350726f746f636f6c52656c617965723a20494e56414c49445f546040820152674f4c4552414e434560c01b606082015260800190565b6020808252602a908201527f476e6f73697350726f746f636f6c52656c617965723a20414d4f554e545f4f55604082015269545f4f465f52414e474560b01b606082015260800190565b60208082526027908201527f476e6f73697350726f746f636f6c52656c617965723a204655545552455f53546040820152664152544441544560c81b606082015260800190565b60208082526027908201527f476e6f73697350726f746f636f6c52656c617965723a20444541444c494e455f60408201526614915050d2115160ca1b606082015260800190565b60208082526025908201527f476e6f73697350726f746f636f6c52656c617965723a204f524445525f45584560408201526410d555115160da1b606082015260800190565b60208082526025908201527f476e6f73697350726f746f636f6c52656c617965723a20524553455256455f546040820152644f5f4c4f5760d81b606082015260800190565b6020808252602a908201527f476e6f73697350726f746f636f6c52656c617965723a204f42534552564154496040820152694f4e5f52554e4e494e4760b01b606082015260800190565b60208082526026908201527f476e6f73697350726f746f636f6c52656c617965723a20494e56414c49445f466040820152654143544f525960d01b606082015260800190565b60208082526028908201527f476e6f73697350726f746f636f6c52656c617965723a204f425345525641544960408201526713d397d15391115160c21b606082015260800190565b60208082526027908201527f476e6f73697350726f746f636f6c52656c617965723a20494e56414c49445f446040820152664541444c494e4560c81b606082015260800190565b6020808252602b908201527f476e6f73697350726f746f636f6c52656c617965723a20494e56414c49445f5460408201526a13d2d15397d05353d5539560aa1b606082015260800190565b60208082526027908201527f476e6f73697350726f746f636f6c52656c617965723a20494e5355464649434960408201526608a9ca8be8aa8960cb1b606082015260800190565b60208082526023908201527f476e6f73697350726f746f636f6c52656c617965723a20494e56414c49445f5060408201526220a4a960e91b606082015260800190565b60208082526024908201527f476e6f73697350726f746f636f6c52656c617965723a20494e56414c49445f4f604082015263292222a960e11b606082015260800190565b60208082526023908201527f5472616e7366657248656c7065723a204554485f5452414e534645525f46414960408201526213115160ea1b606082015260800190565b6020808252602a908201527f476e6f73697350726f746f636f6c52656c617965723a20494e5355464649454e6040820152692a2faa27a5a2a72fa4a760b11b606082015260800190565b60006101a082019050612e4a8284516125bf565b6020830151612e5c60208401826125bf565b506040830151612e6f60408401826125d2565b506060830151612e8260608401826125d2565b506080830151608083015260a083015160a083015260c0830151612ea960c08401826125bf565b5060e0838101519083015261010080840151908301526101208084015190830152610140808401519083015261016080840151612ee8828501826125bf565b505061018080840151612efd828501826125cc565b505092915050565b6001600160801b0391909116815260200190565b61ffff958616815293909416602084015263ffffffff9190911660408301526001600160801b039081166060830152909116608082015260a00190565b90815260200190565b9182526001600160a01b0316602082015260400190565b9283526001600160a01b039190911660208301526001600160801b0316604082015260600190565b95865261ffff948516602087015292909316604085015263ffffffff1660608401526001600160801b0391821660808401521660a082015260c00190565b63ffffffff91909116815260200190565b6001600160a01b0381168114610c0457600080fd5b6001600160701b0381168114610c0457600080fdfea264697066735822122094987f083d7b24c0915e4372636a64866bdd1e680066761f8b28e7683bda2dc064736f6c63430006060033",
  "linkReferences": {},
  "deployedLinkReferences": {}
}