{
  "_format": "hh-sol-artifact-1",
  "contractName": "EpochTokenLocker",
  "sourceName": "contracts/mocks/EpochTokenLocker.sol",
  "abi": [
    {
      "anonymous": false,
      "inputs": [
        {
          "indexed": true,
          "internalType": "address",
          "name": "user",
          "type": "address"
        },
        {
          "indexed": true,
          "internalType": "address",
          "name": "token",
          "type": "address"
        },
        {
          "indexed": false,
          "internalType": "uint256",
          "name": "amount",
          "type": "uint256"
        },
        {
          "indexed": false,
          "internalType": "uint32",
          "name": "batchId",
          "type": "uint32"
        }
      ],
      "name": "Deposit",
      "type": "event"
    },
    {
      "anonymous": false,
      "inputs": [
        {
          "indexed": true,
          "internalType": "address",
          "name": "user",
          "type": "address"
        },
        {
          "indexed": true,
          "internalType": "address",
          "name": "token",
          "type": "address"
        },
        {
          "indexed": false,
          "internalType": "uint256",
          "name": "amount",
          "type": "uint256"
        }
      ],
      "name": "Withdraw",
      "type": "event"
    },
    {
      "anonymous": false,
      "inputs": [
        {
          "indexed": true,
          "internalType": "address",
          "name": "user",
          "type": "address"
        },
        {
          "indexed": true,
          "internalType": "address",
          "name": "token",
          "type": "address"
        },
        {
          "indexed": false,
          "internalType": "uint256",
          "name": "amount",
          "type": "uint256"
        },
        {
          "indexed": false,
          "internalType": "uint32",
          "name": "batchId",
          "type": "uint32"
        }
      ],
      "name": "WithdrawRequest",
      "type": "event"
    },
    {
      "inputs": [],
      "name": "BATCH_TIME",
      "outputs": [
        {
          "internalType": "uint32",
          "name": "",
          "type": "uint32"
        }
      ],
      "stateMutability": "view",
      "type": "function"
    },
    {
      "inputs": [
        {
          "internalType": "address",
          "name": "token",
          "type": "address"
        },
        {
          "internalType": "uint256",
          "name": "amount",
          "type": "uint256"
        }
      ],
      "name": "deposit",
      "outputs": [],
      "stateMutability": "nonpayable",
      "type": "function"
    },
    {
      "inputs": [
        {
          "internalType": "address",
          "name": "user",
          "type": "address"
        },
        {
          "internalType": "address",
          "name": "token",
          "type": "address"
        }
      ],
      "name": "getBalance",
      "outputs": [
        {
          "internalType": "uint256",
          "name": "",
          "type": "uint256"
        }
      ],
      "stateMutability": "view",
      "type": "function"
    },
    {
      "inputs": [],
      "name": "getCurrentBatchId",
      "outputs": [
        {
          "internalType": "uint32",
          "name": "",
          "type": "uint32"
        }
      ],
      "stateMutability": "view",
      "type": "function"
    },
    {
      "inputs": [
        {
          "internalType": "address",
          "name": "user",
          "type": "address"
        },
        {
          "internalType": "address",
          "name": "token",
          "type": "address"
        }
      ],
      "name": "getPendingDeposit",
      "outputs": [
        {
          "internalType": "uint256",
          "name": "",
          "type": "uint256"
        },
        {
          "internalType": "uint32",
          "name": "",
          "type": "uint32"
        }
      ],
      "stateMutability": "view",
      "type": "function"
    },
    {
      "inputs": [
        {
          "internalType": "address",
          "name": "user",
          "type": "address"
        },
        {
          "internalType": "address",
          "name": "token",
          "type": "address"
        }
      ],
      "name": "getPendingWithdraw",
      "outputs": [
        {
          "internalType": "uint256",
          "name": "",
          "type": "uint256"
        },
        {
          "internalType": "uint32",
          "name": "",
          "type": "uint32"
        }
      ],
      "stateMutability": "view",
      "type": "function"
    },
    {
      "inputs": [],
      "name": "getSecondsRemainingInBatch",
      "outputs": [
        {
          "internalType": "uint256",
          "name": "",
          "type": "uint256"
        }
      ],
      "stateMutability": "view",
      "type": "function"
    },
    {
      "inputs": [
        {
          "internalType": "address",
          "name": "user",
          "type": "address"
        },
        {
          "internalType": "address",
          "name": "token",
          "type": "address"
        }
      ],
      "name": "hasValidWithdrawRequest",
      "outputs": [
        {
          "internalType": "bool",
          "name": "",
          "type": "bool"
        }
      ],
      "stateMutability": "view",
      "type": "function"
    },
    {
      "inputs": [
        {
          "internalType": "address",
          "name": "",
          "type": "address"
        },
        {
          "internalType": "address",
          "name": "",
          "type": "address"
        }
      ],
      "name": "lastCreditBatchId",
      "outputs": [
        {
          "internalType": "uint32",
          "name": "",
          "type": "uint32"
        }
      ],
      "stateMutability": "view",
      "type": "function"
    },
    {
      "inputs": [
        {
          "internalType": "address",
          "name": "token",
          "type": "address"
        },
        {
          "internalType": "uint256",
          "name": "amount",
          "type": "uint256"
        },
        {
          "internalType": "uint32",
          "name": "batchId",
          "type": "uint32"
        }
      ],
      "name": "requestFutureWithdraw",
      "outputs": [],
      "stateMutability": "nonpayable",
      "type": "function"
    },
    {
      "inputs": [
        {
          "internalType": "address",
          "name": "token",
          "type": "address"
        },
        {
          "internalType": "uint256",
          "name": "amount",
          "type": "uint256"
        }
      ],
      "name": "requestWithdraw",
      "outputs": [],
      "stateMutability": "nonpayable",
      "type": "function"
    },
    {
      "inputs": [
        {
          "internalType": "address",
          "name": "user",
          "type": "address"
        },
        {
          "internalType": "address",
          "name": "token",
          "type": "address"
        }
      ],
      "name": "withdraw",
      "outputs": [],
      "stateMutability": "nonpayable",
      "type": "function"
    }
  ],
  "bytecode": "0x608060405234801561001057600080fd5b50610fef806100206000396000f3fe608060405234801561001057600080fd5b50600436106100b45760003560e01c8063d4fac45d11610071578063d4fac45d146101ee578063e48c015e1461021c578063e720ac8e14610224578063f36b63551461022c578063f3f4798214610264578063f940e385146102a6576100b4565b806317569c1d146100b9578063397a1b28146100d357806347e7ef2414610101578063907767c01461012d578063b3c0afa114610174578063c33eb9f6146101c0575b600080fd5b6100c16102d4565b60408051918252519081900360200190f35b6100ff600480360360408110156100e957600080fd5b506001600160a01b0381351690602001356102e0565b005b6100ff6004803603604081101561011757600080fd5b506001600160a01b0381351690602001356102f6565b61015b6004803603604081101561014357600080fd5b506001600160a01b03813581169160200135166103f7565b6040805163ffffffff9092168252519081900360200190f35b6101a26004803603604081101561018a57600080fd5b506001600160a01b038135811691602001351661041a565b6040805192835263ffffffff90911660208301528051918290030190f35b6101a2600480360360408110156101d657600080fd5b506001600160a01b0381358116916020013516610474565b6100c16004803603604081101561020457600080fd5b506001600160a01b03813581169160200135166104ce565b61015b6105f9565b61015b6105ff565b6100ff6004803603606081101561024257600080fd5b5080356001600160a01b0316906020810135906040013563ffffffff16610607565b6102926004803603604081101561027a57600080fd5b506001600160a01b038135811691602001351661070e565b604080519115158252519081900360200190f35b6100ff600480360360408110156102bc57600080fd5b506001600160a01b0381358116916020013516610786565b61012c42819006900390565b6102f282826102ed6105ff565b610607565b5050565b610300338361097d565b61030c82333084610a3e565b336000908152602081815260408083206001600160a01b0386168452909152902060010154610341908263ffffffff610a9e16565b336000908152602081815260408083206001600160a01b038716845290915290206001015561036e6105ff565b336000818152602081815260408083206001600160a01b0388168085529252909120600201805463ffffffff191663ffffffff94909416939093179092557fc11cc34e93c67a93382b99f2498e9937198798f3c1c2888008ffc0eeb82f68c4836103d66105ff565b6040805192835263ffffffff90911660208301528051918290030190a35050565b600160209081526000928352604080842090915290825290205463ffffffff1681565b600080610425610ec5565b5050506001600160a01b039182166000908152602081815260408083209390941682529182528290208251808401909352600181015480845260029091015463ffffffff169290910182905291565b60008061047f610ec5565b5050506001600160a01b039182166000908152602081815260408083209390941682529182528290208251808401909352600381015480845260049091015463ffffffff169290910182905291565b6001600160a01b038083166000908152602081815260408083209385168352929052908120546104fc6105ff565b6001600160a01b038086166000908152602081815260408083209388168352929052206002015463ffffffff9182169116101561056e576001600160a01b038085166000908152602081815260408083209387168352929052206001015461056b90829063ffffffff610a9e16565b90505b6105766105ff565b6001600160a01b038086166000908152602081815260408083209388168352929052206004015463ffffffff918216911610156105f2576001600160a01b03808516600090815260208181526040808320938716835292905220600301546105ef906105e29083610af8565b829063ffffffff610b0e16565b90505b9392505050565b61012c81565b61012c420490565b610611338461070e565b15610620576106203384610786565b6106286105ff565b63ffffffff168163ffffffff1610156106725760405162461bcd60e51b8152600401808060200182810382526022815260200180610f986022913960400191505060405180910390fd5b60408051808201825283815263ffffffff83811660208084018281523360008181528084528781206001600160a01b038c16808352908552908890209651600388015591516004909601805463ffffffff19169690951695909517909355845187815290810191909152835191937f2c6245af506f0fc1089918c02c1d01bde9cc807609b334b3e7644d6dfb5a6c5e92918290030190a3505050565b60006107186105ff565b6001600160a01b038085166000908152602081815260408083209387168352929052206004015463ffffffff91821691161080156105f25750506001600160a01b0391821660009081526020818152604080832093909416825291909152206004015463ffffffff16151590565b610790828261097d565b6107986105ff565b6001600160a01b038084166000908152602081815260408083209386168352929052206004015463ffffffff9182169116106108055760405162461bcd60e51b8152600401808060200182810382526026815260200180610f486026913960400191505060405180910390fd5b61080d6105ff565b6001600160a01b0380841660009081526001602090815260408083209386168352929052205463ffffffff9182169116106108795760405162461bcd60e51b8152600401808060200182810382526045815260200180610f036045913960600191505060405180910390fd5b6001600160a01b03828116600090815260208181526040808320938516835292905290812080546003909101546108b09190610af8565b6001600160a01b03808516600090815260208181526040808320938716835292905220549091506108e7908263ffffffff610b0e16565b6001600160a01b0384811660009081526020818152604080832093871683529290529081209182556003820155600401805463ffffffff1916905561092d828483610b50565b816001600160a01b0316836001600160a01b03167f9b1bfa7fa9ee420a16e124f794c35ac9f90472acc99140eb2f6447c714cad8eb836040518082815260200191505060405180910390a3505050565b6001600160a01b038083166000908152602081815260408083209385168352929052206002015463ffffffff1680158015906109c557506109bc6105ff565b63ffffffff1681105b15610a39576001600160a01b03838116600090815260208181526040808320938616835292905220600181015490546109fd91610a9e565b6001600160a01b0384811660009081526020818152604080832093871683529290529081209182556001820155600201805463ffffffff191690555b505050565b604080516001600160a01b0380861660248301528416604482015260648082018490528251808303909101815260849091019091526020810180516001600160e01b03166323b872dd60e01b179052610a98908590610b9e565b50505050565b6000828201838110156105f2576040805162461bcd60e51b815260206004820152601b60248201527f536166654d6174683a206164646974696f6e206f766572666c6f770000000000604482015290519081900360640190fd5b6000818310610b0757816105f2565b5090919050565b60006105f283836040518060400160405280601e81526020017f536166654d6174683a207375627472616374696f6e206f766572666c6f770000815250610c4f565b604080516001600160a01b038416602482015260448082018490528251808303909101815260649091019091526020810180516001600160e01b031663a9059cbb60e01b179052610a399084905b6060610bf3826040518060400160405280602081526020017f5361666545524332303a206c6f772d6c6576656c2063616c6c206661696c6564815250856001600160a01b0316610ce69092919063ffffffff16565b805190915015610a3957808060200190516020811015610c1257600080fd5b5051610a395760405162461bcd60e51b815260040180806020018281038252602a815260200180610f6e602a913960400191505060405180910390fd5b60008184841115610cde5760405162461bcd60e51b81526004018080602001828103825283818151815260200191508051906020019080838360005b83811015610ca3578181015183820152602001610c8b565b50505050905090810190601f168015610cd05780820380516001836020036101000a031916815260200191505b509250505060405180910390fd5b505050900390565b6060610cf58484600085610cfd565b949350505050565b606082471015610d3e5760405162461bcd60e51b8152600401808060200182810382526026815260200180610edd6026913960400191505060405180910390fd5b610d4785610e59565b610d98576040805162461bcd60e51b815260206004820152601d60248201527f416464726573733a2063616c6c20746f206e6f6e2d636f6e7472616374000000604482015290519081900360640190fd5b60006060866001600160a01b031685876040518082805190602001908083835b60208310610dd75780518252601f199092019160209182019101610db8565b6001836020036101000a03801982511681845116808217855250505050505090500191505060006040518083038185875af1925050503d8060008114610e39576040519150601f19603f3d011682016040523d82523d6000602084013e610e3e565b606091505b5091509150610e4e828286610e5f565b979650505050505050565b3b151590565b60608315610e6e5750816105f2565b825115610e7e5782518084602001fd5b60405162461bcd60e51b8152602060048201818152845160248401528451859391928392604401919085019080838360008315610ca3578181015183820152602001610c8b565b60408051808201909152600080825260208201529056fe416464726573733a20696e73756666696369656e742062616c616e636520666f722063616c6c5769746864726177206e6f7420706f737369626c6520666f7220746f6b656e20746861742069732074726164656420696e207468652063757272656e742061756374696f6e776974686472617720776173206e6f7420726567697374657265642070726576696f75736c795361666545524332303a204552433230206f7065726174696f6e20646964206e6f742073756363656564526571756573742063616e6e6f74206265206d61646520696e207468652070617374a26469706673582212207bacc935758ab5c676341a5b9c9596a1d64f8d6349943a6189b59287beab9cde64736f6c63430006060033",
  "linkReferences": {},
  "deployedLinkReferences": {}
}